:020000020000FC
:040000000C94480014
:04001C000C947D00C3
:10008C000C9484008098829821E02093052820937A
:10009C00062820930728209308280093002800E0C6
:1000AC0000B91FEF18B91CB900E000B9D4E0C0E1E9
:1000BC0018E001D1B8E2A5E0009190040260009331
:1000CC0090040091920402600093920400E000936B
:1000DC00010A01E000930A0A00E50093260A00E0F9
:1000EC000093270A0DE00093000A7894FFCF0F933A
:1000FC0031D001E000930B0A0F9118950F930FB7B5
:10010C000F930091890400FD46D00091890402FDF3
:10011C0078D001E00093890404E0009389040F91E6
:10012C000FBF0F9118952F70F1E0E2E400E0E20FA1
:10013C00F01F24910895014F12064C24200F000447
:10014C0008603132303828E01695001F2A95E1F707
:10015C00102F0895009100281D91003031F00130CE
:10016C0041F0023051F0033061F02FE729B90395CB
:10017C000EC02FEB29B903950AC02FED29B90395B1
:10018C0006C02FEE29B9B8E2A5E000E000C01DB909
:10019C000093002808950F931F932F932FB72F933D
:1001AC0012B1D1DF1F701A3020F520E0022F209100
:1001BC0003282093042820910228209303282091BF
:1001CC000128209302281093012820910428ABDFEA
:1001DC002093082820910328A6DF2093072820913C
:1001EC000228A1DF20930628209101289CDF209370
:1001FC0005288998899A2F912FBF2F911F910F91C4
:10020C00089500910228029510910128012B10915C
:10021C000428129520910328122B20E0F22EE22EB6
:10022C00312F329531D0312F2FD0302F32952CD019
:10023C00302F2AD03E2D132F4F2D242F3F704F706F
:10024C00107F207F129522953093092810930A284D
:10025C0040930B2820930C2820910C2864DF2093CA
:10026C00082820910B285FDF2093072820910A286B
:10027C005ADF209306282091092855DF2093052862
:10028C0000C08B988B9A0895CE2CDF2CEE0CFF1CA3
:10029C00CC0CDD1CCC0CDD1CCC0CDD1CEC0CFD1CCE
:1002AC003F70E30E08F4F39408951EE61A95F1F7E7
:1002BC000A95D9F70895086009931A95E1F70895FE
:00000001FF
