:020000020000FC
:040000000C94480014
:04001C000C947F00C1
:10008C000C9487008098829821E020930528209377
:10009C00062820930728209308280093002800E0C6
:1000AC0000B91FEF18B91CB900E000B9B4E0A0E129
:1000BC0018E018E00AD1B8E2A5E0009190040260C3
:1000CC00009390040091920402600093920400E06B
:1000DC000093010A01E000930A0A00EA0093260A41
:1000EC0000E00093270A0DE00093000A78940000CA
:1000FC00FECF0F93F8942FD001E000930B0A0F91D1
:10010C0018950F93F8940091890400FD4FD000913D
:10011C00890402FD80D001E00093890404E000937F
:10012C0089040F9118952F70F1E0E2E400E0E20FE2
:10013C00F01F24910895014F12064C24200F000447
:10014C0008603132303820E01695001F2395283096
:10015C00D9F7102F08950F931F932F932FB72F9329
:10016C00009100281D91003031F0013041F0023037
:10017C0051F0033061F02FEE29B903950EC02FED2D
:10018C0029B903950AC02FEB29B9039506C02FE7AF
:10019C0029B9B8E2A5E000E000C01DB90093002821
:1001AC002F912FBF2F911F910F9108950F931F9394
:1001BC002F932FB712B1C7DF1F701A3020F520E034
:1001CC00022F2091032820930428209102282093A9
:1001DC0003282091012820930228109301282091B4
:1001EC000428A1DF20930828209103289CDF20936A
:1001FC0007282091022897DF2093062820910128B8
:10020C0092DF209305288998899A2F912FBF2F91DF
:10021C001F910F9108950F931F932F930091022814
:10022C00029510910128012B109104281295209110
:10023C000328122B20E0F22EE22E312F329534D0EF
:10024C00312F32D0302F32952FD0302F2DD03E2D54
:10025C00132F4F2D242F3F704F70107F207F12953E
:10026C0022953093092810930A2840930B28209349
:10027C000C2820910C2857DF2093082820910B285C
:10028C0052DF2093072820910A284DDF209306285F
:10029C002091092848DF2093052800C08B988B9A61
:1002AC002F911F910F910895CE2CDF2CEE0CFF1C7B
:1002BC00CC0CDD1CCC0CDD1CCC0CDD1CEC0CFD1CAE
:1002CC003F70E30E08F4F394089508600D931A95AB
:0402DC00E1F70895A9
:00000001FF
